S01500004C65645F416E696D6174696F6E2E73726563FB
S11300000C942A000C9434000C9434000C943400A6
S11300100C9434000C9434000C9434000C9434008C
S11300200C9434000C9434000C9434000C9434007C
S11300300C9434000C9434000C9434000C9434006C
S11300400C9434000C9434000C9434000C9434005C
S11300500C94340011241FBECFE5D8E0DEBFCDBF21
S11300600E9440000C9432020C94000061E00E9453
S1130070760108950E94AE0108950E9492010895A8
S113008081E00E94360060E081E00E943D000F2E76
S1130090F1E8CF2ED12CF02D0F2EF6E6EF2EF12C19
S11300A0F02D09E910E0C0E041E06C2F81E00E94EE
S11300B03A002FEF84E39CE0215080409040E1F728
S11300C000C0000040E06C2F81E00E943A002FE75E
S11300D088E391E0215080409040E1F700C00000A7
S11300E0CF5FC83009F761E081E00E943D002FEF47
S11300F089E698E1215080409040E1F700C000007B
S113010060E081E00E943D002FE788E391E0215008
S113011080409040E1F700C00000C0E0D0E0B601AC
S11301200C2E02C0759567950A94E2F7C6010C2E51
S113013002C0880F991F0A94E2F7682B81E00E949D
S11301403D008FEF94E32CE0815090402040E1F794
S113015000C000002196C830D10509F761E081E0B4
S11301600E943D008FEF99E628E1815090402040A5
S1130170E1F700C0000060E081E00E943D008FE7ED
S113018098E321E0815090402040E1F700C0000056
S1130190C0E0D0E0B7010C2E02C0759567950A94B3
S11301A0E2F7C7010C2E02C0880F991F0A94E2F7E8
S11301B0682B81E00E943D008FEF94E32CE0815096
S11301C090402040E1F700C000002196C830D105DE
S11301D009F761E081E00E943D008FEF99E628E194
S11301E0815090402040E1F700C0000060E081E0D1
S11301F00E943D008FE798E321E081509040204029
S1130200E1F700C00000C0E0D0E0B8010C2E02C04D
S1130210759567950A94E2F7C8010C2E02C0880F01
S1130220991F0A94E2F7682B81E00E943D008FEF4A
S113023094E32CE0815090402040E1F700C000009E
S11302402196C830D10509F761E081E00E943D00A4
S11302508FEF99E628E1815090402040E1F700C0FB
S1130260000060E081E00E943D008FE798E321E018
S1130270815090402040E1F700C00000C4E06AEAE9
S113028081E00E943D008FEF94E32CE08150904088
S11302902040E1F700C0000065E581E00E943D00D8
S11302A08FEF94E32CE0815090402040E1F700C0B0
S11302B00000C15021F761E081E00E943D008FEF12
S11302C099E628E1815090402040E1F700C0000009
S11302D060E081E00E943D008FE798E321E08150D7
S11302E090402040E1F700C00000DDCE613009F409
S11302F06FEF823061F018F4813031F011C0833037
S113030049F0843051F00CC06ABB80E0089567BBAB
S113031080E0089564BB80E0089561BB80E00895A7
S113032081E00895613009F46FEF823061F018F4D0
S1130330813031F011C0833049F0843051F00CC069
S11303406BBB80E0089568BB80E0089565BB80E0E6
S1130350089562BB80E0089581E00895683008F054
S11303607BC0423008F07AC0823029F118F4813021
S113037039F076C08330D1F1843009F452C070C0B2
S113038041110DC02BB381E090E002C0880F991F8A
S11303906A95E2F7809582238BBB80E008952BB3A6
S11303A081E090E002C0880F991F6A95E2F7822BE2
S11303B08BBB80E0089541110DC028B381E090E02B
S11303C002C0880F991F6A95E2F78095822388BB43
S11303D080E0089528B381E090E002C0880F991F5F
S11303E06A95E2F7822B88BB80E0089541110DC025
S11303F025B381E090E002C0880F991F6A95E2F767
S11304008095822385BB80E0089525B381E090E048
S113041002C0880F991F6A95E2F7822B85BB80E0A2
S1130420089541110DC022B381E090E002C0880F0D
S1130430991F6A95E2F78095822382BB80E0089534
S113044022B381E090E002C0880F991F6A95E2F719
S1130450822B82BB80E0089582E0089583E00895B2
S10B046081E00895F894FFCF38
S9030000FC
